:0300000002004CAF
:100008000000E2FBEAF2802C0000E0FBEAF080242A
:10001800E6B50202EBF62200E2B50202EBF222009C
:10002800E0B50202EBF02230F6E0A88220F5D3EA30
:10003800C6F582228B822230F6E6A88220F5D98086
:01004800CFE8
:0300A5000200490D
:0300490002073E6D
:1000A8000000000022E4F515F516C3E5159420E5D7
:1000B800169403500FAE15AF1674012EF515E43FD4
:1000C800F51680E6228582901200A8C2B51200A813
:1000D8008508901200A8D2B50200A8858290120067
:1000E800A8C2B54390F0E590C4540FF582D2B5226A
:1000F800AE82AF83AC15AD16AB178B021BEA601A44
:100108008E018F020EBE00010F8C828D830CBC0005
:10011800010DE089828A83F080E022AE82AF83EE0F
:10012800B51505EFB51601228E828F830EBE00012C
:100138000FE517F080E97580FF7590FF75A0FF75D2
:10014800B0FFD2B5900464E0FF75822EC00712009C
:10015800E375081E75824E1200CD75084E75826EC5
:100168001200CD75080E75825E1200CD7508DF7518
:10017800824F1200CDD00790046BE0FE30E51A756F
:1001880008AF75826FC007C0061200CD75080F75DD
:10019800827F1200CDD006D007C291C007C00612D8
:1001A80000A8D006D007D291900469E0FD30E40A97
:1001B80090215D7478F0A37408F090046AE020E65A
:1001C8002A75150075162475170B902000C007C0F6
:1001D80006C005120123D005D006D007902242742C
:1001E80087F0A374E2F0902258E4F090046CE0FCED
:1001F80090047EE0FB900475E0FAEB20E657EE30C1
:10020800E70890201CE0FEBE0B4B53020390200031
:10021800EAF0EC30E428751550751605751714903A
:100228002001C007C0051200F8751564751605751C
:1002380017059020181200F8D005D00780177515FB
:100248005075160575171C902001C007C0051200CF
:10025800F8D005D00775157E751604751705902119
:1002680061C007C0051200F8D005D007902100E052
:10027800FE53060FBE0B2B9021B9E4F0FE8E03E46B
:100288002354E0CBC423CB6BCB54E0CB6BFC742062
:100298002BFB74203CFC8B828C83E4F00EBE09009F
:1002A80040DBED20E75C900470E0FE53060F9021E0
:1002B8006BEEF0900470E0C4540FFE53060F9021CB
:1002C8006CEEF0900471E0FE53060F90216DEEF095
:1002D800900471E0C4540FFE53060F90216EEEF0A7
:1002E800900472E0FE53060F90216FEEF075156BC7
:1002F8007516217517057582F3C0071200F8D00727
:1003080080679021F3E0FE53060FBE0A00405A9022
:100318000470E0FE53060F90216BEEF0900470E03D
:10032800C4540FFE53060F90216CEEF0900471E058
:10033800FE53060F90216DEEF0900471E0C4540F47
:10034800FE53060F90216EEEF0900472E0FE530605
:100358000F90216FEEF075156B75162175170575E1
:1003680082F3C0071200F8D00790218CE0FE5306F4
:100378000FBE0700400690218C7404F0EF30E409AA
:1003880090218DE4F09021DAF09021E1E4F09021C1
:10039800CAF0902197F0900483E0902191F09004A6
:1003A8006EE0900473E0902248740BF0A3F0900480
:1003B8006DE030E70990224AE4F0A3F0800A902229
:1003C8004A7401F0A37405F090224C74FFF0A3F076
:1003D800A3A3F0A3F0758922758850759870758D60
:1003E800E7758BE7758C9C758A9C75B81075878046
:1003F80075A800C298C29922AF82BF30005003028C
:1004080004D3EF24A650030204D3EF24D0FF240A18
:1004180083F582EF242E83F583E473777B7F8387CC
:100428008B8F93979BD3D3D3D3D3D3D39FA3A7AB8C
:10043800AFB3D3B7D3D3BBD3BFD3C3D3D3D3C7CB34
:10044800D3D3D3D3CF04040404040404040404045D
:100458000404040404040404040404040404040454
:1004680004040404040404040404040404040475D3
:10047800820022758201227582022275820322750A
:1004880082042275820522758206227582072275EA
:100498008208227582092275820A227582252275B0
:1004A80082102275820D2275820E2275822722758E
:1004B800821122758214227582162275821822757D
:1004C800821C2275821D227582222275822422AF07
:1004D8008253070FBF0A0050088F0674302EFE8023
:1004E8000474372FFE8E8222E582547FFFC4540F96
:1004F800FEEF6206EE0303543FFDEE6205EDC31303
:100508006205C299ED30E0047E8080027E00EE4FE5
:10051800F59910990280FB22AF82758278C0071284
:1005280004F0850F821204F0850B821204F0850E08
:10053800821204F0850A821204F0850D821204F0FA
:100548008509821204F0850C821204F0D0078F828C
:100558000204F085821085831185F012120766F572
:1005680082120400AC8274012510F9E43511FAAB4B
:100578001289828A838BF0120766F582C0041204FE
:1005880000AB8274022510F8E43511F9AA128882AA
:1005980089838AF0120766F582C003120400AA82D2
:1005A80074032510F8E43511F9AF12888289838F16
:1005B800F0120766F582C002120400AF82D002D0A2
:1005C80003D00474042510F9E43511FDAE128982B4
:1005D8008D838EF0120766F582C007C004C003C081
:1005E80002120400AE82D002D003D0047405251094
:1005F800F8E43511F9AD12888289838DF012076607
:10060800F582C006C004C003C0021204008582132C
:1006180074062510F8E43511F9AD12888289838DA6
:10062800F0120766F58212040085821474072510FB
:10063800F8E43511F9AD12888289838DF0120766C6
:10064800F58212040085820FD002D003D004D006B0
:10065800D0078B098A0A8F0B8E0C85130D85140E13
:100668008C82020520AF8275824BC007120400AE4F
:1006780082758245C006120400AD82758259C00594
:10068800120400AC82758220C004120400AB82D030
:1006980004D005D006D007EFC4540FF582C007C0B8
:1006A80006C005C004C0031204D7120400AA82D0F1
:1006B80003D004D005D006D0078F82C006C005C07D
:1006C80004C003C0021204D7120400AF82D002D0C3
:1006D80003D004D005D006758220C007C006C00527
:1006E800C004C003C002120400A982758220C001A0
:1006F80012040085820FD001D002D003D004D005A7
:10070800D006D0078D098C0A8B0B8A0C8F0D890EA9
:100718008E82020520902257740BF07F0075826A42
:10072800C0071204F0D0070FBF0A0040F0900786F8
:1007380075F08002055B12013E90078F75F08012FC
:10074800055B10980280FBE599547FFFBF60051296
:0E075800071D80058F8212066D1200AD80E431
:100786004F4646203630202000432044454D4F3307
:02079600200041
:06007B00E4787FF6D8FDD9
:100059007900E94400601B7A00900798780075A040
:1000690000E493F2A308B8000205A0D9F4DAF27506
:02007900A0FFE6
:100081007800E84400600A790075A000E4F309D81B
:10009100FC7800E84400600C7900900000E4F0A3D3
:0400A100D8FCD9FAB4
:0D004C00758117120782E5826003020049EA
:1007660020F71430F6148883A88220F507E6A883BC
:1007760075830022E280F7E49322E022758200224C
:00000001FF
